{
  "contractName": "Food",
  "abi": [
    {
      "constant": true,
      "inputs": [
        {
          "internalType": "uint256",
          "name": "",
          "type": "uint256"
        }
      ],
      "name": "Sales",
      "outputs": [
        {
          "internalType": "address",
          "name": "seller",
          "type": "address"
        },
        {
          "internalType": "address",
          "name": "reciever",
          "type": "address"
        },
        {
          "internalType": "uint256",
          "name": "Price",
          "type": "uint256"
        },
        {
          "internalType": "uint256",
          "name": "quantity",
          "type": "uint256"
        },
        {
          "internalType": "uint256",
          "name": "cropID",
          "type": "uint256"
        }
      ],
      "payable": false,
      "stateMutability": "view",
      "type": "function"
    },
    {
      "constant": true,
      "inputs": [],
      "name": "cropCount",
      "outputs": [
        {
          "internalType": "uint256",
          "name": "",
          "type": "uint256"
        }
      ],
      "payable": false,
      "stateMutability": "view",
      "type": "function"
    },
    {
      "constant": true,
      "inputs": [
        {
          "internalType": "uint256",
          "name": "",
          "type": "uint256"
        }
      ],
      "name": "crops",
      "outputs": [
        {
          "internalType": "uint256",
          "name": "cropID",
          "type": "uint256"
        },
        {
          "internalType": "uint256",
          "name": "total_quantity",
          "type": "uint256"
        },
        {
          "internalType": "address",
          "name": "farmer",
          "type": "address"
        }
      ],
      "payable": false,
      "stateMutability": "view",
      "type": "function"
    },
    {
      "constant": true,
      "inputs": [
        {
          "internalType": "address",
          "name": "",
          "type": "address"
        }
      ],
      "name": "people",
      "outputs": [
        {
          "internalType": "uint256",
          "name": "typeID",
          "type": "uint256"
        }
      ],
      "payable": false,
      "stateMutability": "view",
      "type": "function"
    },
    {
      "constant": true,
      "inputs": [],
      "name": "total_sales",
      "outputs": [
        {
          "internalType": "uint256",
          "name": "",
          "type": "uint256"
        }
      ],
      "payable": false,
      "stateMutability": "view",
      "type": "function"
    },
    {
      "constant": false,
      "inputs": [
        {
          "internalType": "address",
          "name": "_to",
          "type": "address"
        },
        {
          "internalType": "uint256",
          "name": "_price",
          "type": "uint256"
        },
        {
          "internalType": "uint256",
          "name": "_quantity",
          "type": "uint256"
        },
        {
          "internalType": "uint256",
          "name": "_cropID",
          "type": "uint256"
        }
      ],
      "name": "transferCrop",
      "outputs": [],
      "payable": true,
      "stateMutability": "payable",
      "type": "function"
    },
    {
      "constant": true,
      "inputs": [
        {
          "internalType": "uint256",
          "name": "_cropID",
          "type": "uint256"
        }
      ],
      "name": "history",
      "outputs": [
        {
          "internalType": "address[]",
          "name": "",
          "type": "address[]"
        },
        {
          "internalType": "address[]",
          "name": "",
          "type": "address[]"
        },
        {
          "internalType": "uint256[]",
          "name": "",
          "type": "uint256[]"
        },
        {
          "internalType": "uint256[]",
          "name": "",
          "type": "uint256[]"
        }
      ],
      "payable": false,
      "stateMutability": "view",
      "type": "function"
    },
    {
      "constant": false,
      "inputs": [
        {
          "internalType": "uint256",
          "name": "_cropID",
          "type": "uint256"
        },
        {
          "internalType": "uint256",
          "name": "_total_quantity",
          "type": "uint256"
        },
        {
          "internalType": "address",
          "name": "_farmer",
          "type": "address"
        }
      ],
      "name": "addCrop",
      "outputs": [],
      "payable": true,
      "stateMutability": "payable",
      "type": "function"
    }
  ],
  "bytecode": "0x608060405234801561001057600080fd5b50610c0e806100206000396000f3fe60806040526004361061007b5760003560e01c8063a7a38f0b1161004e578063a7a38f0b14610289578063bb91dce8146103f1578063dfd55a2c14610453578063eac2f5981461047e5761007b565b806307de97351461008057806334cf00fd146100e55780633529280b1461013d57806370c9f1a514610200575b600080fd5b34801561008c57600080fd5b506100cf600480360360208110156100a357600080fd5b81019080803573ffffffffffffffffffffffffffffffffffffffff1690602001909291905050506104a9565b6040518082815260200191505060405180910390f35b61013b600480360360608110156100fb57600080fd5b810190808035906020019092919080359060200190929190803573ffffffffffffffffffffffffffffffffffffffff1690602001909291905050506104c7565b005b34801561014957600080fd5b506101766004803603602081101561016057600080fd5b81019080803590602001909291905050506105fd565b604051808673ffffffffffffffffffffffffffffffffffffffff1673ffffffffffffffffffffffffffffffffffffffff1681526020018573ffffffffffffffffffffffffffffffffffffffff1673ffffffffffffffffffffffffffffffffffffffff1681526020018481526020018381526020018281526020019550505050505060405180910390f35b34801561020c57600080fd5b506102396004803603602081101561022357600080fd5b8101908080359060200190929190505050610673565b604051808481526020018381526020018273ffffffffffffffffffffffffffffffffffffffff1673ffffffffffffffffffffffffffffffffffffffff168152602001935050505060405180910390f35b34801561029557600080fd5b506102c2600480360360208110156102ac57600080fd5b81019080803590602001909291905050506106ca565b6040518080602001806020018060200180602001858103855289818151815260200191508051906020019060200280838360005b838110156103115780820151818401526020810190506102f6565b50505050905001858103845288818151815260200191508051906020019060200280838360005b83811015610353578082015181840152602081019050610338565b50505050905001858103835287818151815260200191508051906020019060200280838360005b8381101561039557808201518184015260208101905061037a565b50505050905001858103825286818151815260200191508051906020019060200280838360005b838110156103d75780820151818401526020810190506103bc565b505050509050019850505050505050505060405180910390f35b6104516004803603608081101561040757600080fd5b81019080803573ffffffffffffffffffffffffffffffffffffffff16906020019092919080359060200190929190803590602001909291908035906020019092919050505061088d565b005b34801561045f57600080fd5b50610468610a32565b6040518082815260200191505060405180910390f35b34801561048a57600080fd5b50610493610a38565b6040518082815260200191505060405180910390f35b60026020528060005260406000206000915090508060000154905081565b6104cf610ba2565b60405180606001604052808581526020018481526020018373ffffffffffffffffffffffffffffffffffffffff168152509050600080815480929190600101919050555060018190806001815401808255809150509060018203906000526020600020906003020160009091929091909150600082015181600001556020820151816001015560408201518160020160006101000a81548173ffffffffffffffffffffffffffffffffffffffff021916908373ffffffffffffffffffffffffffffffffffffffff16021790555050505082600260008473ffffffffffffffffffffffffffffffffffffffff1673ffffffffffffffffffffffffffffffffffffffff16815260200190815260200160002060010160008681526020019081526020016000208190555050505050565b60046020528060005260406000206000915090508060000160009054906101000a900473ffffffffffffffffffffffffffffffffffffffff16908060010160009054906101000a900473ffffffffffffffffffffffffffffffffffffffff16908060020154908060030154908060040154905085565b6001818154811061068057fe5b90600052602060002090600302016000915090508060000154908060010154908060020160009054906101000a900473ffffffffffffffffffffffffffffffffffffffff16905083565b60608060608060608060608060008060035490505b60008110610874578a600460008381526020019081526020016000206004015414156108665781806001019250506004600082815260200190815260200160002060010160009054906101000a900473ffffffffffffffffffffffffffffffffffffffff1686838151811061075057fe5b602002602001019073ffffffffffffffffffffffffffffffffffffffff16908173ffffffffffffffffffffffffffffffffffffffff16815250506004600082815260200190815260200160002060000160009054906101000a900473ffffffffffffffffffffffffffffffffffffffff168583815181106107cd57fe5b602002602001019073ffffffffffffffffffffffffffffffffffffffff16908173ffffffffffffffffffffffffffffffffffffffff1681525050600460008281526020019081526020016000206002015484838151811061082a57fe5b602002602001018181525050600460008281526020019081526020016000206003015483838151811061085957fe5b6020026020010181815250505b8080600190039150506106df565b5084848484985098509850985050505050509193509193565b81600260003373ffffffffffffffffffffffffffffffffffffffff1673ffffffffffffffffffffffffffffffffffffffff16815260200190815260200160002060010160008381526020019081526020016000205410156108ed57600080fd5b6003600081548092919060010191905055506040518060a001604052803373ffffffffffffffffffffffffffffffffffffffff1681526020018573ffffffffffffffffffffffffffffffffffffffff1681526020018481526020018381526020018281525060046000600354815260200190815260200160002060008201518160000160006101000a81548173ffffffffffffffffffffffffffffffffffffffff021916908373ffffffffffffffffffffffffffffffffffffffff16021790555060208201518160010160006101000a81548173ffffffffffffffffffffffffffffffffffffffff021916908373ffffffffffffffffffffffffffffffffffffffff160217905550604082015181600201556060820151816003015560808201518160040155905050610a21338284610a3e565b610a2c848284610af0565b50505050565b60005481565b60035481565b80600260008573ffffffffffffffffffffffffffffffffffffffff1673ffffffffffffffffffffffffffffffffffffffff16815260200190815260200160002060010160008481526020019081526020016000205403600260008573ffffffffffffffffffffffffffffffffffffffff1673ffffffffffffffffffffffffffffffffffffffff168152602001908152602001600020600101600084815260200190815260200160002081905550505050565b80600260008573ffffffffffffffffffffffffffffffffffffffff1673ffffffffffffffffffffffffffffffffffffffff16815260200190815260200160002060010160008481526020019081526020016000205401600260008573ffffffffffffffffffffffffffffffffffffffff1673ffffffffffffffffffffffffffffffffffffffff168152602001908152602001600020600101600084815260200190815260200160002081905550505050565b60405180606001604052806000815260200160008152602001600073ffffffffffffffffffffffffffffffffffffffff168152509056fea265627a7a723158208eabd6506da1d140fdfad1284c17ba0d04d09b08652eff6ffda4348acb0987c064736f6c63430005100032",
  "source": "//SPDX-License-Identifier: UNLICENSED\npragma solidity >0.4.17;\n\ncontract Food {\n    struct Crop {\n        uint256 cropID;\n        uint256 total_quantity; \n        address farmer;\n    }\n    //Array of crops and crop count declared\n   \n    uint256 public cropCount;\n    Crop[]  public crops;\n    \n    struct Person{\n        uint256 typeID;\n        mapping(uint256=> uint256) current_quantity;//cropID to quantity\n    }\n    mapping (address=> Person) public people;\n     \n    struct Acquire{\n        address seller;    // seller's address\n        address reciever;  // reciever's address\n        uint256 Price;     //price per kg\n        uint256 quantity;  //quantity of the crop sold\n        uint256 cropID;    //cropID of crop transfered\n\n    }\n    \n    uint256 public total_sales;\n    mapping(uint256=> Acquire) public Sales; //total_sales with cropID\n    \n    \n    function updateSender(address _from, uint256 _cropID, uint256 _quantity) private {\n        people[_from].current_quantity[_cropID]=people[_from].current_quantity[_cropID]- _quantity;\n    } \n    function updateReciever(address _to, uint256 _cropID, uint256 _quantity) private {\n        people[_to].current_quantity[_cropID]=people[_to].current_quantity[_cropID]+ _quantity;\n    }\n    function transferCrop(address _to, uint256 _price, uint256 _quantity,uint256 _cropID ) public payable {\n        require(people[msg.sender].current_quantity[_cropID]>=_quantity);\n        total_sales++;\n        Sales[total_sales]=Acquire({seller: msg.sender, \n                                    reciever: _to, \n                                    Price:_price,\n                                    quantity:_quantity,\n                                    cropID:_cropID\n                                     \n                                    });\n        updateSender(msg.sender, _cropID,_quantity);\n        updateReciever(_to, _cropID,_quantity);\n    }\n    //this function returns array of address, Price and quantity\n    function history(uint256 _cropID) public view returns(address[] memory, address[] memory, uint256[] memory, uint256[] memory){\n        address[] memory w;\n        address[] memory x;\n        uint256[] memory y;\n        uint256[] memory z;\n        uint256 count;\n        for(uint256 i=total_sales; i>=0; i--){\n            if(Sales[i].cropID==_cropID){\n                count++;\n                w[count]=(Sales[i].reciever);\n                x[count]=(Sales[i].seller);\n                y[count]=(Sales[i].Price);\n                z[count]=(Sales[i].quantity);\n            }\n        }\n        return(w,x,y,z);\n    }\n    \n    function addCrop(uint256 _cropID, uint256 _total_quantity, address _farmer)public payable{\n        Crop memory x=Crop({cropID: _cropID, total_quantity: _total_quantity, farmer: _farmer});\n        cropCount++;\n        crops.push(x);\n        people[_farmer].current_quantity[_cropID]=_total_quantity;\n    }\n}",
  "sourcePath": "/home/udayveer/Food_supply_chain/contracts/Food.sol",
  "compiler": {
    "name": "solc",
    "version": "0.5.16+commit.9c3226ce.Emscripten.clang"
  },
  "schemaVersion": "3.2.3",
  "updatedAt": "2020-10-31T18:19:57.969Z",
  "networkType": "ethereum",
  "devdoc": {
    "methods": {}
  },
  "userdoc": {
    "methods": {}
  }
}